:100000000C94B8000C94C2000C94C2000C94C20072
:100010000C94C2000C94C2000C94C2000C94C20058
:100020000C94C2000C94C2000C94C2000C94C20048
:100030000C94C2000C94C2000C94C2000C94C20038
:100040000C94C2000C94C2000C94C2000C94C20028
:100050000C94C2000C94C2000C94C2000C94C20018
:100060000C94C2000C94C200250233023302280211
:100070002A022C022F0233023302330233023302EC
:1000800033023302330233023302330233023302C8
:1000900033023302330233023302330233023302B8
:1000A00033023302330233023302330233023302A8
:1000B0003302330233023302330233023302330298
:1000C0002202200233020B020D020F021102130260
:1000D0001502170219021B021D02330233023302FA
:1000E00033023302330233029F01A101A401A601AE
:1000F000A801AA01AC01AE01B001B201B401B60180
:10010000B801BA01BC01BE01C001C201C401C601EF
:10011000C801CA01CC01CE01D001D20133023302A1
:100120003302330233023302D501D701D901DB0197
:10013000DD01DF01E101E301E501E701E901EB0197
:10014000ED01EF01F101F401F601F801FA01FC0102
:10015000FE010002020204020602080241024302FA
:100160004502470249024B024D024F02510253021F
:1001700011241FBECFEFD4E0DEBFCDBF0E943E05ED
:100180000C94E4060C94000082E28BB983EC99E0B5
:100190000197F1F700C0000082E08BB983EC99E091
:1001A0000197F1F700C0000082E28BB983EC99E07F
:1001B0000197F1F700C0000082E08BB983EC99E071
:1001C0000197F1F700C0000082E28BB983EC99E05F
:1001D0000197F1F700C0000088E28BB983EC99E049
:1001E0000197F1F700C0000088E08BB983EC99E03B
:1001F0000197F1F700C0000088E28BB983EC99E029
:100200000197F1F700C0000080E28BB983EC99E020
:100210000197F1F700C000001BB883EC99E001974B
:10022000F1F700C0000080E28BB983EC99E0019700
:10023000F1F700C000008FE28BB983EC99E00197E1
:10024000F1F700C000008FE08BB983EC99E00197D3
:10025000F1F700C000008FE28BB983EC99E00197C1
:10026000F1F700C0000080E28BB983EC99E00197C0
:10027000F1F700C000001BB883EC99E00197F1F79B
:1002800000C0000080E28BB983EC99E00197F1F7A0
:1002900000C0000086E28BB983EC99E00197F1F78A
:1002A00000C0000086E08BB983EC99E00197F1F77C
:1002B00000C0000086E28BB983EC99E00197F1F76A
:1002C00000C0000080E28BB983EC99E00197F1F760
:1002D00000C00000089590E2980F9BB926EA2A9585
:1002E000F1F700C08BB986EA8A95F1F700C09BB997
:1002F00096EA9A95F1F700C080E2860F8BB926EA5C
:100300002A95F1F700C06BB996EA9A95F1F700C00B
:100310008BB926EA2A95F1F700C080E28BB986EA0C
:100320008A95F1F700C0089590E0FC013197EA3713
:10033000F10508F098C0EC5CFF4F0C94560561E1A4
:1003400001C062E184E18DC063E1FCCF64E1FACFDA
:1003500065E1F8CF66E1F6CF67E1F4CF68E1F2CF6F
:1003600069E1F0CF6AE1EECF6BE1ECCF6CE1EACF6F
:100370006DE1E8CF6EE1E6CF6FE1E4CF60E113C05D
:1003800061E111C062E10FC063E10DC064E10BC027
:1003900065E109C066E107C067E105C068E103C027
:1003A00069E101C06AE185E15CC061E11BC062E115
:1003B00019C063E117C064E115C065E113C066E1CF
:1003C00011C067E10FC068E10DC069E10BC06AE1CF
:1003D00009C06BE107C06CE105C06DE103C06EE1CF
:1003E00001C06FE186E13DC060E113C061E111C071
:1003F00062E10FC063E10DC064E10BC065E109C0BB
:1004000066E107C067E105C068E103C069E101C0BA
:100410006AE187E126C060E111C061E10FC062E1DD
:100420000DC063E10BC064E109C065E107C066E18E
:1004300005C067E103C068E101C069E183E111C063
:100440006EE101C06DE182E10CC064E18FE109C0A1
:1004500062E006C061E004C064E081E002C064E0E4
:1004600080E00C946B010895992787FD9095A92F42
:10047000B92F8A309105C8F4FC01E255FF4F0C9466
:10048000560580E113C081E111C082E10FC083E114
:100490000DC084E10BC085E109C086E107C087E19A
:1004A00005C088E103C089E101C089E70C9494018B
:1004B00085E00E94940186E00E94940186E00E94FB
:1004C000940186E00E9494018DE40E94940185E4E9
:1004D0000E94940182E40E94940181E40E949401AC
:1004E0008EE40E94940185E40E94940186E00E94BB
:1004F000940186E00E94940186E00E9494018CE4BD
:100500000E94940181E40E94940182E40E9494017B
:1005100083E50E94940186E00E94940186E00E9497
:10052000940186E00E94940186E00E94940186E096
:100530000E94940186E00E94940186E00E9494014A
:1005400086E00E94940186E00E94940187E30E9465
:1005500094018DE20E94940182E30E94940189E358
:100560000E9494018DE20E94940182E30E94940112
:1005700080E30E94940181E30E94940181E30E9440
:1005800094012FE382E49FE0215080409040E1F706
:1005900000C00000089585E00E94940186E00E945A
:1005A000940186E00E94940186E00E94940186E016
:1005B0000E94940186E00E94940186E00E949401CA
:1005C00086E00E94940186E00E94940186E00E94E9
:1005D000940186E00E94940186E00E94940186E0E6
:1005E0000E94940186E00E94940186E00E9494019A
:1005F00086E00E94940186E00E94940186E00E94B9
:10060000940186E00E94940186E00E94940186E0B5
:100610000E94940186E00E94940186E00E94940169
:1006200086E00E94940186E00E94940186E00E9488
:10063000940186E00E94940186E00E94940186E085
:100640000E94940186E00E94940186E00E94940139
:1006500086E00E94940186E00E94940186E00E9458
:10066000940186E00E94940186E00E94940186E055
:100670000E94940186E00E94940186E00E94940109
:1006800086E00E94940186E00E94940186E00E9428
:10069000940186E00E94940186E00E94940186E025
:1006A0000E94940186E00E94940186E00E949401D9
:1006B00084E30E9494018EE20E94940189E30E94E7
:1006C000940189E30E94940189E30E94940186E3E6
:1006D0000E94940186E00E94940181E00E949401AE
:1006E0002FE986E891E0215080409040E1F700C07A
:1006F000000085E00E94940186E00E94940186E05B
:100700000E94940186E00E94940186E00E94940178
:1007100086E00E94940186E00E94940186E00E9497
:10072000940186E00E94940186E00E94940186E094
:100730000E94940186E00E94940186E00E94940148
:1007400086E00E94940186E00E94940186E00E9467
:10075000940186E00E94940186E00E94940186E064
:100760000E94940186E00E94940186E00E94940118
:1007700086E00E94940186E00E94940186E00E9437
:10078000940186E00E94940186E00E94940186E034
:100790000E94940186E00E94940186E00E949401E8
:1007A00086E00E94940186E00E94940186E00E9407
:1007B000940186E00E94940186E00E94940186E004
:1007C0000E94940186E00E94940186E00E949401B8
:1007D00086E00E94940186E00E94940186E00E94D7
:1007E000940186E00E94940186E00E94940186E0D4
:1007F0000E94940186E00E94940186E00E94940188
:1008000086E00E94940186E00E94940184E30E94A5
:1008100094018EE20E94940189E30E94940189E38D
:100820000E94940189E30E94940187E30E9494014D
:1008300086E00E94940181E00E94940183ED90E3A0
:100840000197F1F700C00000089580E30E94940131
:1008500081E30E94940182E30E94940183E30E9459
:10086000940184E30E94940185E30E94940186E34D
:100870000E94940187E30E94940188E30E949401FE
:1008800089E30C94940190917C00982B90937C00C8
:1008900080917C00846680937C0080917A008064E3
:1008A00080937A0080917A0084FFFCCF80917A0057
:1008B000806180937A00809178009091790008950A
:1008C00087E880937A000895CF93DF93CDB7DEB7A2
:1008D000C054D1090FB6F894DEBF0FBECDBF80E083
:1008E0000E944304BC0180E090E00E948D0523E358
:1008F00033E34BE251E40E94F3050E945C052AE0D9
:1009000030E0AE014F5F5F4F0E947E0689810E94FA
:1009100094018EE20E9494018A810E9494018B814D
:100920000E9494018C810E9494018D810E94940107
:1009300086E00E94940186E50E94940184E60E946C
:10094000940183E60E949401C05CDF4F0FB6F894D7
:10095000DEBF0FBECDBFDF91CF91089586E00E942C
:10096000940186E00E94940186E00E94940186E052
:100970000E94940186E00E94940186E00E94940106
:1009800086E00E94940186E00E94940186E00E9425
:10099000940186E00E94940186E00E94940186E022
:1009A0000E94940186E00E94940186E00E949401D6
:1009B00086E00E94940186E00E94940186E00E94F5
:1009C000940186E00E94940186E00E94940186E0F2
:1009D0000E94940186E00E94940186E00E949401A6
:1009E00086E00E94940186E00E94940186E00E94C5
:1009F000940186E00E94940186E00E94940186E0C2
:100A00000E94940186E00E94940186E00E94940175
:100A100086E00E94940186E00E94940186E00E9494
:100A2000940186E00E94940186E00E94940186E091
:100A30000E94940186E00E94940186E00E94940145
:100A400086E00E94940186E00E94940186E00E9464
:100A5000940186E00E94940186E00E94940186E061
:100A60000E94940186E00E94940186E00E94940115
:100A700086E00E94940186E00C94940117B88FEFF1
:100A80008AB980E28BB90E94C40087E880937A001B
:100A90000E94580285E00E9494010E94640487EA43
:100AA00091E60197F1F700C00000F4CFEE0FFF1FB1
:100AB0000590F491E02D099404D06894B1118DC093
:100AC000089570D088F09F5790F0B92F9927B751AB
:100AD000A0F0D1F0660F771F881F991F1AF0BA9502
:100AE000C9F712C0B13081F077D0B1E0089574C079
:100AF000672F782F8827B85F39F0B93FCCF38695F8
:100B000077956795B395D9F73EF490958095709554
:100B100061957F4F8F4F9F4F0895E89409C097FBD1
:100B20003EF490958095709561957F4F8F4F9F4FC4
:100B30009923A9F0F92F96E9BB279395F695879508
:100B400077956795B795F111F8CFFAF4BB0F11F4CB
:100B500060FF1BC06F5F7F4F8F4F9F4F16C0882372
:100B600011F096E911C0772321F09EE8872F762FA8
:100B700005C0662371F096E8862F70E060E02AF0E9
:100B80009A95660F771F881FDAF7880F96958795D5
:100B900097F9089557FD9058440F551F59F05F3F3E
:100BA00071F04795880F97FB991F61F09F3F79F08F
:100BB00087950895121613061406551FF2CF469511
:100BC000F1DF08C0161617061806991FF1CF869593
:100BD0007105610508940895E894BB276627772777
:100BE000CB0197F908950BD078C069D028F06ED06A
:100BF00018F0952309F05AC05FC01124EECFCADF68
:100C0000A0F3959FD1F3950F50E0551F629FF0011F
:100C1000729FBB27F00DB11D639FAA27F00DB11D78
:100C2000AA1F649F6627B00DA11D661F829F222701
:100C3000B00DA11D621F739FB00DA11D621F839F88
:100C4000A00D611D221F749F3327A00D611D231F5E
:100C5000849F600D211D822F762F6A2F11249F57AC
:100C600050408AF0E1F088234AF0EE0FFF1FBB1FCF
:100C7000661F771F881F91505040A9F79E3F51056E
:100C800070F014C0AACF5F3FECF3983EDCF386957A
:100C900077956795B795F795E7959F5FC1F7FE2B19
:100CA000880F911D9695879597F9089597F99F67F5
:100CB00080E870E060E008959FEF80EC08950024E4
:100CC0000A941616170618060906089500240A94B1
:100CD00012161306140605060895092E0394000C37
:100CE00011F4882352F0BB0F40F4BF2B11F460FFC6
:100CF00004C06F5F7F4F8F4F9F4F0895FA01CF93CE
:100D0000FF93EF93223044F1253234F5C22FE8945B
:100D1000CA3049F497FB3EF49095809570956195A3
:100D20007F4F8F4F9F4F2C2F332744275527FF93FB
:100D3000EF930E94C206EF91FF91605D6A330CF061
:100D4000695D6193B901CA01605070408040904074
:100D500051F716F4CDE2C19310828F919F91CF91FC
:100D60000C94B206DC01FC01672F71917723E1F747
:100D7000329704C07C916D9370836291AE17BF0768
:100D8000C8F30895A1E21A2EAA1BBB1BFD010DC0DA
:100D9000AA1FBB1FEE1FFF1FA217B307E407F5072B
:100DA00020F0A21BB30BE40BF50B661F771F881F07
:100DB000991F1A9469F760957095809590959B019D
:0C0DC000AC01BD01CF010895F894FFCFF5
:00000001FF
